{
  "contractName": "ERC404Example",
  "abi": [
    {
      "inputs": [
        {
          "internalType": "string",
          "name": "name_",
          "type": "string"
        },
        {
          "internalType": "string",
          "name": "symbol_",
          "type": "string"
        },
        {
          "internalType": "uint8",
          "name": "decimals_",
          "type": "uint8"
        },
        {
          "internalType": "address",
          "name": "initialOwner_",
          "type": "address"
        }
      ],
      "stateMutability": "nonpayable",
      "type": "constructor"
    },
    {
      "inputs": [],
      "name": "AlreadyExists",
      "type": "error"
    },
    {
      "inputs": [],
      "name": "DecimalsTooLow",
      "type": "error"
    },
    {
      "inputs": [],
      "name": "InsufficientAllowance",
      "type": "error"
    },
    {
      "inputs": [],
      "name": "InvalidApproval",
      "type": "error"
    },
    {
      "inputs": [],
      "name": "InvalidExemption",
      "type": "error"
    },
    {
      "inputs": [],
      "name": "InvalidOperator",
      "type": "error"
    },
    {
      "inputs": [],
      "name": "InvalidRecipient",
      "type": "error"
    },
    {
      "inputs": [],
      "name": "InvalidSender",
      "type": "error"
    },
    {
      "inputs": [],
      "name": "InvalidSigner",
      "type": "error"
    },
    {
      "inputs": [],
      "name": "InvalidSpender",
      "type": "error"
    },
    {
      "inputs": [],
      "name": "InvalidTokenId",
      "type": "error"
    },
    {
      "inputs": [],
      "name": "MintLimitReached",
      "type": "error"
    },
    {
      "inputs": [],
      "name": "NotFound",
      "type": "error"
    },
    {
      "inputs": [
        {
          "internalType": "address",
          "name": "owner",
          "type": "address"
        }
      ],
      "name": "OwnableInvalidOwner",
      "type": "error"
    },
    {
      "inputs": [
        {
          "internalType": "address",
          "name": "account",
          "type": "address"
        }
      ],
      "name": "OwnableUnauthorizedAccount",
      "type": "error"
    },
    {
      "inputs": [],
      "name": "OwnedIndexOverflow",
      "type": "error"
    },
    {
      "inputs": [],
      "name": "PermitDeadlineExpired",
      "type": "error"
    },
    {
      "inputs": [],
      "name": "QueueEmpty",
      "type": "error"
    },
    {
      "inputs": [],
      "name": "QueueFull",
      "type": "error"
    },
    {
      "inputs": [],
      "name": "QueueOutOfBounds",
      "type": "error"
    },
    {
      "inputs": [],
      "name": "RecipientIsERC721TransferExempt",
      "type": "error"
    },
    {
      "inputs": [],
      "name": "Unauthorized",
      "type": "error"
    },
    {
      "inputs": [],
      "name": "UnsafeRecipient",
      "type": "error"
    },
    {
      "anonymous": false,
      "inputs": [
        {
          "indexed": true,
          "internalType": "address",
          "name": "owner",
          "type": "address"
        },
        {
          "indexed": true,
          "internalType": "address",
          "name": "spender",
          "type": "address"
        },
        {
          "indexed": false,
          "internalType": "uint256",
          "name": "value",
          "type": "uint256"
        }
      ],
      "name": "Approval",
      "type": "event"
    },
    {
      "anonymous": false,
      "inputs": [
        {
          "indexed": true,
          "internalType": "address",
          "name": "owner",
          "type": "address"
        },
        {
          "indexed": true,
          "internalType": "address",
          "name": "spender",
          "type": "address"
        },
        {
          "indexed": true,
          "internalType": "uint256",
          "name": "id",
          "type": "uint256"
        }
      ],
      "name": "Approval",
      "type": "event"
    },
    {
      "anonymous": false,
      "inputs": [
        {
          "indexed": true,
          "internalType": "address",
          "name": "owner",
          "type": "address"
        },
        {
          "indexed": true,
          "internalType": "address",
          "name": "operator",
          "type": "address"
        },
        {
          "indexed": false,
          "internalType": "bool",
          "name": "approved",
          "type": "bool"
        }
      ],
      "name": "ApprovalForAll",
      "type": "event"
    },
    {
      "anonymous": false,
      "inputs": [
        {
          "indexed": true,
          "internalType": "address",
          "name": "previousOwner",
          "type": "address"
        },
        {
          "indexed": true,
          "internalType": "address",
          "name": "newOwner",
          "type": "address"
        }
      ],
      "name": "OwnershipTransferred",
      "type": "event"
    },
    {
      "anonymous": false,
      "inputs": [
        {
          "indexed": true,
          "internalType": "address",
          "name": "from",
          "type": "address"
        },
        {
          "indexed": true,
          "internalType": "address",
          "name": "to",
          "type": "address"
        },
        {
          "indexed": false,
          "internalType": "uint256",
          "name": "amount",
          "type": "uint256"
        }
      ],
      "name": "Transfer",
      "type": "event"
    },
    {
      "anonymous": false,
      "inputs": [
        {
          "indexed": true,
          "internalType": "address",
          "name": "from",
          "type": "address"
        },
        {
          "indexed": true,
          "internalType": "address",
          "name": "to",
          "type": "address"
        },
        {
          "indexed": true,
          "internalType": "uint256",
          "name": "id",
          "type": "uint256"
        }
      ],
      "name": "Transfer",
      "type": "event"
    },
    {
      "inputs": [],
      "name": "DOMAIN_SEPARATOR",
      "outputs": [
        {
          "internalType": "bytes32",
          "name": "",
          "type": "bytes32"
        }
      ],
      "stateMutability": "view",
      "type": "function"
    },
    {
      "inputs": [],
      "name": "ID_ENCODING_PREFIX",
      "outputs": [
        {
          "internalType": "uint256",
          "name": "",
          "type": "uint256"
        }
      ],
      "stateMutability": "view",
      "type": "function"
    },
    {
      "inputs": [
        {
          "internalType": "address",
          "name": "",
          "type": "address"
        },
        {
          "internalType": "address",
          "name": "",
          "type": "address"
        }
      ],
      "name": "allowance",
      "outputs": [
        {
          "internalType": "uint256",
          "name": "",
          "type": "uint256"
        }
      ],
      "stateMutability": "view",
      "type": "function"
    },
    {
      "inputs": [
        {
          "internalType": "address",
          "name": "spender_",
          "type": "address"
        },
        {
          "internalType": "uint256",
          "name": "valueOrId_",
          "type": "uint256"
        }
      ],
      "name": "approve",
      "outputs": [
        {
          "internalType": "bool",
          "name": "",
          "type": "bool"
        }
      ],
      "stateMutability": "nonpayable",
      "type": "function"
    },
    {
      "inputs": [
        {
          "internalType": "address",
          "name": "",
          "type": "address"
        }
      ],
      "name": "balanceOf",
      "outputs": [
        {
          "internalType": "uint256",
          "name": "",
          "type": "uint256"
        }
      ],
      "stateMutability": "view",
      "type": "function"
    },
    {
      "inputs": [],
      "name": "decimals",
      "outputs": [
        {
          "internalType": "uint8",
          "name": "",
          "type": "uint8"
        }
      ],
      "stateMutability": "view",
      "type": "function"
    },
    {
      "inputs": [
        {
          "internalType": "address",
          "name": "spender_",
          "type": "address"
        },
        {
          "internalType": "uint256",
          "name": "value_",
          "type": "uint256"
        }
      ],
      "name": "erc20Approve",
      "outputs": [
        {
          "internalType": "bool",
          "name": "",
          "type": "bool"
        }
      ],
      "stateMutability": "nonpayable",
      "type": "function"
    },
    {
      "inputs": [
        {
          "internalType": "address",
          "name": "owner_",
          "type": "address"
        }
      ],
      "name": "erc20BalanceOf",
      "outputs": [
        {
          "internalType": "uint256",
          "name": "",
          "type": "uint256"
        }
      ],
      "stateMutability": "view",
      "type": "function"
    },
    {
      "inputs": [],
      "name": "erc20TotalSupply",
      "outputs": [
        {
          "internalType": "uint256",
          "name": "",
          "type": "uint256"
        }
      ],
      "stateMutability": "view",
      "type": "function"
    },
    {
      "inputs": [
        {
          "internalType": "address",
          "name": "from_",
          "type": "address"
        },
        {
          "internalType": "address",
          "name": "to_",
          "type": "address"
        },
        {
          "internalType": "uint256",
          "name": "value_",
          "type": "uint256"
        }
      ],
      "name": "erc20TransferFrom",
      "outputs": [
        {
          "internalType": "bool",
          "name": "",
          "type": "bool"
        }
      ],
      "stateMutability": "nonpayable",
      "type": "function"
    },
    {
      "inputs": [
        {
          "internalType": "address",
          "name": "spender_",
          "type": "address"
        },
        {
          "internalType": "uint256",
          "name": "id_",
          "type": "uint256"
        }
      ],
      "name": "erc721Approve",
      "outputs": [],
      "stateMutability": "nonpayable",
      "type": "function"
    },
    {
      "inputs": [
        {
          "internalType": "address",
          "name": "owner_",
          "type": "address"
        }
      ],
      "name": "erc721BalanceOf",
      "outputs": [
        {
          "internalType": "uint256",
          "name": "",
          "type": "uint256"
        }
      ],
      "stateMutability": "view",
      "type": "function"
    },
    {
      "inputs": [],
      "name": "erc721TotalSupply",
      "outputs": [
        {
          "internalType": "uint256",
          "name": "",
          "type": "uint256"
        }
      ],
      "stateMutability": "view",
      "type": "function"
    },
    {
      "inputs": [
        {
          "internalType": "address",
          "name": "target_",
          "type": "address"
        }
      ],
      "name": "erc721TransferExempt",
      "outputs": [
        {
          "internalType": "bool",
          "name": "",
          "type": "bool"
        }
      ],
      "stateMutability": "view",
      "type": "function"
    },
    {
      "inputs": [
        {
          "internalType": "address",
          "name": "from_",
          "type": "address"
        },
        {
          "internalType": "address",
          "name": "to_",
          "type": "address"
        },
        {
          "internalType": "uint256",
          "name": "id_",
          "type": "uint256"
        }
      ],
      "name": "erc721TransferFrom",
      "outputs": [],
      "stateMutability": "nonpayable",
      "type": "function"
    },
    {
      "inputs": [
        {
          "internalType": "uint256",
          "name": "",
          "type": "uint256"
        }
      ],
      "name": "getApproved",
      "outputs": [
        {
          "internalType": "address",
          "name": "",
          "type": "address"
        }
      ],
      "stateMutability": "view",
      "type": "function"
    },
    {
      "inputs": [],
      "name": "getERC721QueueLength",
      "outputs": [
        {
          "internalType": "uint256",
          "name": "",
          "type": "uint256"
        }
      ],
      "stateMutability": "view",
      "type": "function"
    },
    {
      "inputs": [
        {
          "internalType": "uint256",
          "name": "start_",
          "type": "uint256"
        },
        {
          "internalType": "uint256",
          "name": "count_",
          "type": "uint256"
        }
      ],
      "name": "getERC721TokensInQueue",
      "outputs": [
        {
          "internalType": "uint256[]",
          "name": "",
          "type": "uint256[]"
        }
      ],
      "stateMutability": "view",
      "type": "function"
    },
    {
      "inputs": [
        {
          "internalType": "address",
          "name": "",
          "type": "address"
        },
        {
          "internalType": "address",
          "name": "",
          "type": "address"
        }
      ],
      "name": "isApprovedForAll",
      "outputs": [
        {
          "internalType": "bool",
          "name": "",
          "type": "bool"
        }
      ],
      "stateMutability": "view",
      "type": "function"
    },
    {
      "inputs": [],
      "name": "minted",
      "outputs": [
        {
          "internalType": "uint256",
          "name": "",
          "type": "uint256"
        }
      ],
      "stateMutability": "view",
      "type": "function"
    },
    {
      "inputs": [],
      "name": "name",
      "outputs": [
        {
          "internalType": "string",
          "name": "",
          "type": "string"
        }
      ],
      "stateMutability": "view",
      "type": "function"
    },
    {
      "inputs": [
        {
          "internalType": "address",
          "name": "",
          "type": "address"
        }
      ],
      "name": "nonces",
      "outputs": [
        {
          "internalType": "uint256",
          "name": "",
          "type": "uint256"
        }
      ],
      "stateMutability": "view",
      "type": "function"
    },
    {
      "inputs": [
        {
          "internalType": "address",
          "name": "owner_",
          "type": "address"
        }
      ],
      "name": "owned",
      "outputs": [
        {
          "internalType": "uint256[]",
          "name": "",
          "type": "uint256[]"
        }
      ],
      "stateMutability": "view",
      "type": "function"
    },
    {
      "inputs": [],
      "name": "owner",
      "outputs": [
        {
          "internalType": "address",
          "name": "",
          "type": "address"
        }
      ],
      "stateMutability": "view",
      "type": "function"
    },
    {
      "inputs": [
        {
          "internalType": "uint256",
          "name": "id_",
          "type": "uint256"
        }
      ],
      "name": "ownerOf",
      "outputs": [
        {
          "internalType": "address",
          "name": "erc721Owner",
          "type": "address"
        }
      ],
      "stateMutability": "view",
      "type": "function"
    },
    {
      "inputs": [
        {
          "internalType": "address",
          "name": "owner_",
          "type": "address"
        },
        {
          "internalType": "address",
          "name": "spender_",
          "type": "address"
        },
        {
          "internalType": "uint256",
          "name": "value_",
          "type": "uint256"
        },
        {
          "internalType": "uint256",
          "name": "deadline_",
          "type": "uint256"
        },
        {
          "internalType": "uint8",
          "name": "v_",
          "type": "uint8"
        },
        {
          "internalType": "bytes32",
          "name": "r_",
          "type": "bytes32"
        },
        {
          "internalType": "bytes32",
          "name": "s_",
          "type": "bytes32"
        }
      ],
      "name": "permit",
      "outputs": [],
      "stateMutability": "nonpayable",
      "type": "function"
    },
    {
      "inputs": [],
      "name": "renounceOwnership",
      "outputs": [],
      "stateMutability": "nonpayable",
      "type": "function"
    },
    {
      "inputs": [
        {
          "internalType": "address",
          "name": "from_",
          "type": "address"
        },
        {
          "internalType": "address",
          "name": "to_",
          "type": "address"
        },
        {
          "internalType": "uint256",
          "name": "id_",
          "type": "uint256"
        }
      ],
      "name": "safeTransferFrom",
      "outputs": [],
      "stateMutability": "nonpayable",
      "type": "function"
    },
    {
      "inputs": [
        {
          "internalType": "address",
          "name": "from_",
          "type": "address"
        },
        {
          "internalType": "address",
          "name": "to_",
          "type": "address"
        },
        {
          "internalType": "uint256",
          "name": "id_",
          "type": "uint256"
        },
        {
          "internalType": "bytes",
          "name": "data_",
          "type": "bytes"
        }
      ],
      "name": "safeTransferFrom",
      "outputs": [],
      "stateMutability": "nonpayable",
      "type": "function"
    },
    {
      "inputs": [
        {
          "internalType": "address",
          "name": "operator_",
          "type": "address"
        },
        {
          "internalType": "bool",
          "name": "approved_",
          "type": "bool"
        }
      ],
      "name": "setApprovalForAll",
      "outputs": [],
      "stateMutability": "nonpayable",
      "type": "function"
    },
    {
      "inputs": [
        {
          "internalType": "bool",
          "name": "state_",
          "type": "bool"
        }
      ],
      "name": "setSelfERC721TransferExempt",
      "outputs": [],
      "stateMutability": "nonpayable",
      "type": "function"
    },
    {
      "inputs": [
        {
          "internalType": "bytes4",
          "name": "interfaceId",
          "type": "bytes4"
        }
      ],
      "name": "supportsInterface",
      "outputs": [
        {
          "internalType": "bool",
          "name": "",
          "type": "bool"
        }
      ],
      "stateMutability": "view",
      "type": "function"
    },
    {
      "inputs": [],
      "name": "symbol",
      "outputs": [
        {
          "internalType": "string",
          "name": "",
          "type": "string"
        }
      ],
      "stateMutability": "view",
      "type": "function"
    },
    {
      "inputs": [],
      "name": "totalSupply",
      "outputs": [
        {
          "internalType": "uint256",
          "name": "",
          "type": "uint256"
        }
      ],
      "stateMutability": "view",
      "type": "function"
    },
    {
      "inputs": [
        {
          "internalType": "address",
          "name": "to_",
          "type": "address"
        },
        {
          "internalType": "uint256",
          "name": "value_",
          "type": "uint256"
        }
      ],
      "name": "transfer",
      "outputs": [
        {
          "internalType": "bool",
          "name": "",
          "type": "bool"
        }
      ],
      "stateMutability": "nonpayable",
      "type": "function"
    },
    {
      "inputs": [
        {
          "internalType": "address",
          "name": "from_",
          "type": "address"
        },
        {
          "internalType": "address",
          "name": "to_",
          "type": "address"
        },
        {
          "internalType": "uint256",
          "name": "valueOrId_",
          "type": "uint256"
        }
      ],
      "name": "transferFrom",
      "outputs": [
        {
          "internalType": "bool",
          "name": "",
          "type": "bool"
        }
      ],
      "stateMutability": "nonpayable",
      "type": "function"
    },
    {
      "inputs": [
        {
          "internalType": "address",
          "name": "newOwner",
          "type": "address"
        }
      ],
      "name": "transferOwnership",
      "outputs": [],
      "stateMutability": "nonpayable",
      "type": "function"
    },
    {
      "inputs": [],
      "name": "units",
      "outputs": [
        {
          "internalType": "uint256",
          "name": "",
          "type": "uint256"
        }
      ],
      "stateMutability": "view",
      "type": "function"
    },
    {
      "inputs": [
        {
          "internalType": "uint256",
          "name": "id_",
          "type": "uint256"
        }
      ],
      "name": "tokenURI",
      "outputs": [
        {
          "internalType": "string",
          "name": "",
          "type": "string"
        }
      ],
      "stateMutability": "pure",
      "type": "function"
    },
    {
      "inputs": [
        {
          "internalType": "address",
          "name": "account_",
          "type": "address"
        },
        {
          "internalType": "bool",
          "name": "value_",
          "type": "bool"
        }
      ],
      "name": "setERC721TransferExempt",
      "outputs": [],
      "stateMutability": "nonpayable",
      "type": "function"
    }
  ],
  "bytecode": "0x61010060405234801562000011575f80fd5b506040516200663d3803806200663d83398181016040528101906200003791906200189e565b838383835f73ffffffffffffffffffffffffffffffffffffffff168173ffffffffffffffffffffffffffffffffffffffff1603620000ae575f6040517f1e4fbdf7000000000000000000000000000000000000000000000000000000008152600401620000a591906200195c565b60405180910390fd5b620000bf81620001b560201b60201c565b508260039081620000d1919062001bae565b508160049081620000e3919062001bae565b5060128160ff16101562000123576040517f98790fd500000000000000000000000000000000000000000000000000000000815260040160405180910390fd5b8060ff1660808160ff1681525050608051600a62000142919062001e0f565b60a081815250504660c08181525050620001616200027660201b60201c565b60e081815250505050505f3390505f6103e89050620001888260016200030560201b60201c565b620001a98260a051836200019d919062001e5f565b620003f360201b60201c565b50505050505062002188565b5f805f9054906101000a900473ffffffffffffffffffffffffffffffffffffffff169050815f806101000a81548173ffffffffffffffffffffffffffffffffffffffff021916908373ffffffffffffffffffffffffffffffffffffffff1602179055508173ffffffffffffffffffffffffffffffffffffffff168173ffffffffffffffffffffffffffffffffffffffff167f8be0079c531659141344cd1fd0a4f28419497f9722a3daafe3b4186f6b6457e060405160405180910390a35050565b5f7f8b73c3c69bb8fe3d512ecc4cf759cc79239f7b179b0ffacaa9a75d522b39400f6003604051620002a9919062001f51565b60405180910390207fc89efdaa54c0f20c7adf612882df0950f5a951637e0307cdcb4c672f298b8bc64630604051602001620002ea95949392919062001f94565b60405160208183030381529060405280519060200120905090565b5f73ffffffffffffffffffffffffffffffffffffffff168273ffffffffffffffffffffffffffffffffffffffff16036200036b576040517fa41e3d3f00000000000000000000000000000000000000000000000000000000815260040160405180910390fd5b801562000389576200038382620004db60201b60201c565b6200039b565b6200039a826200051c60201b60201c565b5b80600d5f8473ffffffffffffffffffffffffffffffffffffffff1673ffffffffffffffffffffffffffffffffffffffff1681526020019081526020015f205f6101000a81548160ff0219169083151502179055505050565b5f73ffffffffffffffffffffffffffffffffffffffff168273ffffffffffffffffffffffffffffffffffffffff160362000459576040517f9c8d2cd200000000000000000000000000000000000000000000000000000000815260040160405180910390fd5b7f8000000000000000000000000000000000000000000000000000000000000000816005546200048a919062001fef565b1115620004c3576040517f303b682f00000000000000000000000000000000000000000000000000000000815260040160405180910390fd5b620004d65f83836200058e60201b60201c565b505050565b5f620004ed82620008f760201b60201c565b90505f5b8181101562000517576200050b836200094060201b60201c565b806001019050620004f1565b505050565b5f60a051620005318362000a7f60201b60201c565b6200053d919062002056565b90505f6200055183620008f760201b60201c565b90505f5b81836200056391906200208d565b81101562000588576200057c8462000ac560201b60201c565b80600101905062000555565b50505050565b5f80620005a18562000a7f60201b60201c565b90505f620005b58562000a7f60201b60201c565b9050620005ca86868662000c9560201b60201c565b5f620005dc8762000df560201b60201c565b90505f620005f08762000df560201b60201c565b9050818015620005fd5750805b620008e8578115620006a5575f60a051846200061a919062002056565b60a05160075f8b73ffffffffffffffffffffffffffffffffffffffff1673ffffffffffffffffffffffffffffffffffffffff1681526020019081526020015f205462000667919062002056565b6200067391906200208d565b90505f5b818110156200069d57620006918962000ac560201b60201c565b80600101905062000677565b5050620008e7565b801562000748575f60a05160075f8b73ffffffffffffffffffffffffffffffffffffffff1673ffffffffffffffffffffffffffffffffffffffff1681526020019081526020015f2054620006fa919062002056565b60a051866200070a919062002056565b6200071691906200208d565b90505f5b818110156200074057620007348a6200094060201b60201c565b8060010190506200071a565b5050620008e6565b5f60a0518762000759919062002056565b90505f5b8181101562000837575f6001600c5f8d73ffffffffffffffffffffffffffffffffffffffff1673ffffffffffffffffffffffffffffffffffffffff1681526020019081526020015f2080549050620007b691906200208d565b90505f600c5f8d73ffffffffffffffffffffffffffffffffffffffff1673ffffffffffffffffffffffffffffffffffffffff1681526020019081526020015f2082815481106200080b576200080a620020c7565b5b905f5260205f2001549050620008298c8c8362000e7e60201b60201c565b82600101925050506200075d565b508060a0516200084d8b62000a7f60201b60201c565b62000859919062002056565b60a0518762000869919062002056565b6200087591906200208d565b11156200088e576200088d896200094060201b60201c565b5b8060a051856200089f919062002056565b60a051620008b38b62000a7f60201b60201c565b620008bf919062002056565b620008cb91906200208d565b1115620008e457620008e38862000ac560201b60201c565b5b505b5b5b60019450505050509392505050565b5f600c5f8373ffffffffffffffffffffffffffffffffffffffff1673ffffffffffffffffffffffffffffffffffffffff1681526020019081526020015f20805490509050919050565b5f73ffffffffffffffffffffffffffffffffffffffff168173ffffffffffffffffffffffffffffffffffffffff1603620009a6576040517fddb5de5e00000000000000000000000000000000000000000000000000000000815260040160405180910390fd5b5f600c5f8373ffffffffffffffffffffffffffffffffffffffff1673ffffffffffffffffffffffffffffffffffffffff1681526020019081526020015f206001600c5f8573ffffffffffffffffffffffffffffffffffffffff1673ffffffffffffffffffffffffffffffffffffffff1681526020019081526020015f208054905062000a3391906200208d565b8154811062000a475762000a46620020c7565b5b905f5260205f200154905062000a65825f8362000e7e60201b60201c565b62000a7b8160016200120760201b90919060201c565b5050565b5f60075f8373ffffffffffffffffffffffffffffffffffffffff1673ffffffffffffffffffffffffffffffffffffffff1681526020019081526020015f20549050919050565b5f73ffffffffffffffffffffffffffffffffffffffff168173ffffffffffffffffffffffffffffffffffffffff160362000b2b576040517f9c8d2cd200000000000000000000000000000000000000000000000000000000815260040160405180910390fd5b5f62000b3e60016200132360201b60201c565b62000b5d5762000b5560016200138f60201b60201c565b905062000c03565b60065f815462000b6d90620020f4565b919050819055507fffffffffffffffffffffffffffffffffffffffffffffffffffffffffffffffff6006540362000bd0576040517f303b682f00000000000000000000000000000000000000000000000000000000815260040160405180910390fd5b6006547f800000000000000000000000000000000000000000000000000000000000000062000c00919062001fef565b90505b5f62000c1582620014ea60201b60201c565b90505f73ffffffffffffffffffffffffffffffffffffffff168173ffffffffffffffffffffffffffffffffffffffff161462000c7d576040517f23369fa600000000000000000000000000000000000000000000000000000000815260040160405180910390fd5b62000c9081848462000e7e60201b60201c565b505050565b5f73ffffffffffffffffffffffffffffffffffffffff168373ffffffffffffffffffffffffffffffffffffffff160362000ce9578060055f82825462000cdc919062001fef565b9250508190555062000d3f565b8060075f8573ffffffffffffffffffffffffffffffffffffffff1673ffffffffffffffffffffffffffffffffffffffff1681526020019081526020015f205f82825462000d3791906200208d565b925050819055505b8060075f8473ffffffffffffffffffffffffffffffffffffffff1673ffffffffffffffffffffffffffffffffffffffff1681526020019081526020015f205f82825401925050819055508173ffffffffffffffffffffffffffffffffffffffff168373ffffffffffffffffffffffffffffffffffffffff167fddf252ad1be2c89b69c2b068fc378daa952ba7f163c4a11628f55a4df523b3ef8360405162000de8919062002140565b60405180910390a3505050565b5f8073ffffffffffffffffffffffffffffffffffffffff168273ffffffffffffffffffffffffffffffffffffffff16148062000e775750600d5f8373ffffffffffffffffffffffffffffffffffffffff1673ffffffffffffffffffffffffffffffffffffffff1681526020019081526020015f205f9054906101000a900460ff165b9050919050565b5f73ffffffffffffffffffffffffffffffffffffffff168373ffffffffffffffffffffffffffffffffffffffff1614620010855760095f8281526020019081526020015f205f6101000a81549073ffffffffffffffffffffffffffffffffffffffff02191690555f600c5f8573ffffffffffffffffffffffffffffffffffffffff1673ffffffffffffffffffffffffffffffffffffffff1681526020019081526020015f206001600c5f8773ffffffffffffffffffffffffffffffffffffffff1673ffffffffffffffffffffffffffffffffffffffff1681526020019081526020015f208054905062000f7291906200208d565b8154811062000f865762000f85620020c7565b5b905f5260205f200154905081811462001020575f62000fab836200151f60201b60201c565b905081600c5f8773ffffffffffffffffffffffffffffffffffffffff1673ffffffffffffffffffffffffffffffffffffffff1681526020019081526020015f208281548110620010005762000fff620020c7565b5b905f5260205f2001819055506200101e82826200154160201b60201c565b505b600c5f8573ffffffffffffffffffffffffffffffffffffffff1673ffffffffffffffffffffffffffffffffffffffff1681526020019081526020015f2080548062001070576200106f6200215b565b5b600190038181905f5260205f20015f90559055505b5f73ffffffffffffffffffffffffffffffffffffffff168273ffffffffffffffffffffffffffffffffffffffff16146200119257620010cb81836200161060201b60201c565b600c5f8373ffffffffffffffffffffffffffffffffffffffff1673ffffffffffffffffffffffffffffffffffffffff1681526020019081526020015f2081908060018154018082558091505060019003905f5260205f20015f90919091909150556200118c816001600c5f8673ffffffffffffffffffffffffffffffffffffffff1673ffffffffffffffffffffffffffffffffffffffff1681526020019081526020015f20805490506200118091906200208d565b6200154160201b60201c565b620011a7565b600b5f8281526020019081526020015f205f90555b808273ffffffffffffffffffffffffffffffffffffffff168473ffffffffffffffffffffffffffffffffffffffff167fddf252ad1be2c89b69c2b068fc378daa952ba7f163c4a11628f55a4df523b3ef60405160405180910390a4505050565b5f6001835f015f9054906101000a90046fffffffffffffffffffffffffffffffff16039050825f0160109054906101000a90046fffffffffffffffffffffffffffffffff166fffffffffffffffffffffffffffffffff16816fffffffffffffffffffffffffffffffff1603620012a9576040517f8acb5f2700000000000000000000000000000000000000000000000000000000815260040160405180910390fd5b81836001015f836fffffffffffffffffffffffffffffffff166fffffffffffffffffffffffffffffffff1681526020019081526020015f208190555080835f015f6101000a8154816fffffffffffffffffffffffffffffffff02191690836fffffffffffffffffffffffffffffffff160217905550505050565b5f815f015f9054906101000a90046fffffffffffffffffffffffffffffffff166fffffffffffffffffffffffffffffffff16825f0160109054906101000a90046fffffffffffffffffffffffffffffffff166fffffffffffffffffffffffffffffffff16149050919050565b5f80825f0160109054906101000a90046fffffffffffffffffffffffffffffffff169050825f015f9054906101000a90046fffffffffffffffffffffffffffffffff166fffffffffffffffffffffffffffffffff16816fffffffffffffffffffffffffffffffff16036200142f576040517f75e52f4f00000000000000000000000000000000000000000000000000000000815260040160405180910390fd5b80600190039050826001015f826fffffffffffffffffffffffffffffffff166fffffffffffffffffffffffffffffffff1681526020019081526020015f20549150826001015f826fffffffffffffffffffffffffffffffff166fffffffffffffffffffffffffffffffff1681526020019081526020015f205f905580835f0160106101000a8154816fffffffffffffffffffffffffffffffff02191690836fffffffffffffffffffffffffffffffff16021790555050919050565b5f80600b5f8481526020019081526020015f2054905073ffffffffffffffffffffffffffffffffffffffff8116915050919050565b5f80600b5f8481526020019081526020015f205490508060a01c915050919050565b5f600b5f8481526020019081526020015f2054905060a07fffffffffffffffffffffffff0000000000000000000000000000000000000000901c821115620015b5576040517ffcb3438c00000000000000000000000000000000000000000000000000000000815260040160405180910390fd5b7fffffffffffffffffffffffff00000000000000000000000000000000000000008260a01b1673ffffffffffffffffffffffffffffffffffffffff821601905080600b5f8581526020019081526020015f2081905550505050565b5f600b5f8481526020019081526020015f2054905073ffffffffffffffffffffffffffffffffffffffff82167fffffffffffffffffffffffff0000000000000000000000000000000000000000821601905080600b5f8581526020019081526020015f2081905550505050565b5f604051905090565b5f80fd5b5f80fd5b5f80fd5b5f80fd5b5f601f19601f8301169050919050565b7f4e487b71000000000000000000000000000000000000000000000000000000005f52604160045260245ffd5b620016de8262001696565b810181811067ffffffffffffffff821117156200170057620016ff620016a6565b5b80604052505050565b5f620017146200167d565b9050620017228282620016d3565b919050565b5f67ffffffffffffffff821115620017445762001743620016a6565b5b6200174f8262001696565b9050602081019050919050565b5f5b838110156200177b5780820151818401526020810190506200175e565b5f8484015250505050565b5f6200179c620017968462001727565b62001709565b905082815260208101848484011115620017bb57620017ba62001692565b5b620017c88482856200175c565b509392505050565b5f82601f830112620017e757620017e66200168e565b5b8151620017f984826020860162001786565b91505092915050565b5f60ff82169050919050565b620018198162001802565b811462001824575f80fd5b50565b5f8151905062001837816200180e565b92915050565b5f73ffffffffffffffffffffffffffffffffffffffff82169050919050565b5f62001868826200183d565b9050919050565b6200187a816200185c565b811462001885575f80fd5b50565b5f8151905062001898816200186f565b92915050565b5f805f8060808587031215620018b957620018b862001686565b5b5f85015167ffffffffffffffff811115620018d957620018d86200168a565b5b620018e787828801620017d0565b945050602085015167ffffffffffffffff8111156200190b576200190a6200168a565b5b6200191987828801620017d0565b93505060406200192c8782880162001827565b92505060606200193f8782880162001888565b91505092959194509250565b62001956816200185c565b82525050565b5f602082019050620019715f8301846200194b565b92915050565b5f81519050919050565b7f4e487b71000000000000000000000000000000000000000000000000000000005f52602260045260245ffd5b5f6002820490506001821680620019c657607f821691505b602082108103620019dc57620019db62001981565b5b50919050565b5f819050815f5260205f209050919050565b5f6020601f8301049050919050565b5f82821b905092915050565b5f6008830262001a407fffffffffffffffffffffffffffffffffffffffffffffffffffffffffffffffff8262001a03565b62001a4c868362001a03565b95508019841693508086168417925050509392505050565b5f819050919050565b5f819050919050565b5f62001a9662001a9062001a8a8462001a64565b62001a6d565b62001a64565b9050919050565b5f819050919050565b62001ab18362001a76565b62001ac962001ac08262001a9d565b84845462001a0f565b825550505050565b5f90565b62001adf62001ad1565b62001aec81848462001aa6565b505050565b5b8181101562001b135762001b075f8262001ad5565b60018101905062001af2565b5050565b601f82111562001b625762001b2c81620019e2565b62001b3784620019f4565b8101602085101562001b47578190505b62001b5f62001b5685620019f4565b83018262001af1565b50505b505050565b5f82821c905092915050565b5f62001b845f198460080262001b67565b1980831691505092915050565b5f62001b9e838362001b73565b9150826002028217905092915050565b62001bb98262001977565b67ffffffffffffffff81111562001bd55762001bd4620016a6565b5b62001be18254620019ae565b62001bee82828562001b17565b5f60209050601f83116001811462001c24575f841562001c0f578287015190505b62001c1b858262001b91565b86555062001c8a565b601f19841662001c3486620019e2565b5f5b8281101562001c5d5784890151825560018201915060208501945060208101905062001c36565b8683101562001c7d578489015162001c79601f89168262001b73565b8355505b6001600288020188555050505b505050505050565b7f4e487b71000000000000000000000000000000000000000000000000000000005f52601160045260245ffd5b5f8160011c9050919050565b5f808291508390505b600185111562001d1c5780860481111562001cf45762001cf362001c92565b5b600185161562001d045780820291505b808102905062001d148562001cbf565b945062001cd4565b94509492505050565b5f8262001d36576001905062001e08565b8162001d45575f905062001e08565b816001811462001d5e576002811462001d695762001d9f565b600191505062001e08565b60ff84111562001d7e5762001d7d62001c92565b5b8360020a91508482111562001d985762001d9762001c92565b5b5062001e08565b5060208310610133831016604e8410600b841016171562001dd95782820a90508381111562001dd35762001dd262001c92565b5b62001e08565b62001de8848484600162001ccb565b9250905081840481111562001e025762001e0162001c92565b5b81810290505b9392505050565b5f62001e1b8262001a64565b915062001e288362001802565b925062001e577fffffffffffffffffffffffffffffffffffffffffffffffffffffffffffffffff848462001d25565b905092915050565b5f62001e6b8262001a64565b915062001e788362001a64565b925082820262001e888162001a64565b9150828204841483151762001ea25762001ea162001c92565b5b5092915050565b5f81905092915050565b5f819050815f5260205f209050919050565b5f815462001ed381620019ae565b62001edf818662001ea9565b9450600182165f811462001efc576001811462001f125762001f48565b60ff198316865281151582028601935062001f48565b62001f1d8562001eb3565b5f5b8381101562001f405781548189015260018201915060208101905062001f1f565b838801955050505b50505092915050565b5f62001f5e828462001ec5565b915081905092915050565b5f819050919050565b62001f7d8162001f69565b82525050565b62001f8e8162001a64565b82525050565b5f60a08201905062001fa95f83018862001f72565b62001fb8602083018762001f72565b62001fc7604083018662001f72565b62001fd6606083018562001f83565b62001fe560808301846200194b565b9695505050505050565b5f62001ffb8262001a64565b9150620020088362001a64565b925082820190508082111562002023576200202262001c92565b5b92915050565b7f4e487b71000000000000000000000000000000000000000000000000000000005f52601260045260245ffd5b5f620020628262001a64565b91506200206f8362001a64565b92508262002082576200208162002029565b5b828204905092915050565b5f620020998262001a64565b9150620020a68362001a64565b9250828203905081811115620020c157620020c062001c92565b5b92915050565b7f4e487b71000000000000000000000000000000000000000000000000000000005f52603260045260245ffd5b5f620021008262001a64565b91507fffffffffffffffffffffffffffffffffffffffffffffffffffffffffffffffff820362002135576200213462001c92565b5b600182019050919050565b5f602082019050620021555f83018462001f83565b92915050565b7f4e487b71000000000000000000000000000000000000000000000000000000005f52603160045260245ffd5b60805160a05160c05160e051614434620022095f395f610b5b01525f610b2701525f8181610ed801528181611bf50152818161232801528181612354015281816123f50152818161245e015281816124bc015281816125b9015281816125ed01528181612634015281816126600152612d1401525f610b0201526144345ff3fe608060405234801561000f575f80fd5b5060043610610246575f3560e01c80638a696e5011610139578063c6e672b9116100b6578063dd6376991161007a578063dd63769914610764578063dfabc03314610780578063e985e9c51461079c578063f2fde38b146107cc578063f780bc1a146107e857610246565b8063c6e672b91461069c578063c87b56dd146106b8578063d505accf146106e8578063d96ca0b914610704578063dd62ed3e1461073457610246565b8063a9059cbb116100fd578063a9059cbb146105d2578063b1ab931714610602578063b3f9ea3414610632578063b88d4fde14610662578063c5ab3ba61461067e57610246565b80638a696e50146105405780638da5cb5b1461055c57806395d89b411461057a578063976a843514610598578063a22cb465146105b657610246565b80633644e515116101c75780636e8f624b1161018b5780636e8f624b1461049a57806370a08231146104b8578063715018a6146104e85780637ecebe00146104f257806389fb4c661461052257610246565b80633644e515146103e257806342842e0e146104005780634d9660721461041c5780634f02c4201461044c5780636352211e1461046a57610246565b806309674eb01161020e57806309674eb01461032857806309f0ef651461034657806318160ddd1461037657806323b872dd14610394578063313ce567146103c457610246565b806301ffc9a71461024a57806302519da31461027a57806306fdde03146102aa578063081812fc146102c8578063095ea7b3146102f8575b5f80fd5b610264600480360381019061025f919061364e565b610818565b6040516102719190613693565b60405180910390f35b610294600480360381019061028f9190613706565b6108e9565b6040516102a19190613749565b60405180910390f35b6102b261092f565b6040516102bf91906137ec565b60405180910390f35b6102e260048036038101906102dd9190613836565b6109bb565b6040516102ef9190613870565b60405180910390f35b610312600480360381019061030d9190613889565b6109eb565b60405161031f9190613693565b60405180910390f35b610330610a25565b60405161033d9190613749565b60405180910390f35b610360600480360381019061035b9190613706565b610a35565b60405161036d9190613693565b60405180910390f35b61037e610abd565b60405161038b9190613749565b60405180910390f35b6103ae60048036038101906103a991906138c7565b610ac3565b6040516103bb9190613693565b60405180910390f35b6103cc610b00565b6040516103d99190613932565b60405180910390f35b6103ea610b24565b6040516103f79190613963565b60405180910390f35b61041a600480360381019061041591906138c7565b610b80565b005b61043660048036038101906104319190613889565b610b9f565b6040516104439190613693565b60405180910390f35b610454610cf1565b6040516104619190613749565b60405180910390f35b610484600480360381019061047f9190613836565b610cf7565b6040516104919190613870565b60405180910390f35b6104a2610dac565b6040516104af9190613749565b60405180910390f35b6104d260048036038101906104cd9190613706565b610dd0565b6040516104df9190613749565b60405180910390f35b6104f0610de5565b005b61050c60048036038101906105079190613706565b610df8565b6040516105199190613749565b60405180910390f35b61052a610e0d565b6040516105379190613749565b60405180910390f35b61055a600480360381019061055591906139a6565b610e16565b005b610564610e23565b6040516105719190613870565b60405180910390f35b610582610e4a565b60405161058f91906137ec565b60405180910390f35b6105a0610ed6565b6040516105ad9190613749565b60405180910390f35b6105d060048036038101906105cb91906139d1565b610efa565b005b6105ec60048036038101906105e79190613889565b611057565b6040516105f99190613693565b60405180910390f35b61061c60048036038101906106179190613706565b6110d0565b6040516106299190613ac6565b60405180910390f35b61064c60048036038101906106479190613706565b611163565b6040516106599190613749565b60405180910390f35b61067c60048036038101906106779190613c12565b6111ac565b005b61068661131e565b6040516106939190613749565b60405180910390f35b6106b660048036038101906106b191906139d1565b611327565b005b6106d260048036038101906106cd9190613836565b61133d565b6040516106df91906137ec565b60405180910390f35b61070260048036038101906106fd9190613ce6565b61136e565b005b61071e600480360381019061071991906138c7565b6116ee565b60405161072b9190613693565b60405180910390f35b61074e60048036038101906107499190613d83565b6118fa565b60405161075b9190613749565b60405180910390f35b61077e600480360381019061077991906138c7565b61191a565b005b61079a60048036038101906107959190613889565b611c29565b005b6107b660048036038101906107b19190613d83565b611dd9565b6040516107c39190613693565b60405180910390f35b6107e660048036038101906107e19190613706565b611e03565b005b61080260048036038101906107fd9190613dc1565b611e87565b60405161080f9190613ac6565b60405180910390f35b5f7fcaf91ff5000000000000000000000000000000000000000000000000000000007bffffffffffffffffffffffffffffffffffffffffffffffffffffffff1916827bffffffffffffffffffffffffffffffffffffffffffffffffffffffff191614806108e257507f01ffc9a7000000000000000000000000000000000000000000000000000000007bffffffffffffffffffffffffffffffffffffffffffffffffffffffff1916827bffffffffffffffffffffffffffffffffffffffffffffffffffffffff1916145b9050919050565b5f60075f8373ffffffffffffffffffffffffffffffffffffffff1673ffffffffffffffffffffffffffffffffffffffff1681526020019081526020015f20549050919050565b6003805461093c90613e2c565b80601f016020809104026020016040519081016040528092919081815260200182805461096890613e2c565b80156109b35780601f1061098a576101008083540402835291602001916109b3565b820191905f5260205f20905b81548152906001019060200180831161099657829003601f168201915b505050505081565b6009602052805f5260405f205f915054906101000a900473ffffffffffffffffffffffffffffffffffffffff1681565b5f6109f582611f41565b15610a0957610a048383611c29565b610a1a565b610a138383610b9f565b9050610a1f565b600190505b92915050565b5f610a306001611f98565b905090565b5f8073ffffffffffffffffffffffffffffffffffffffff168273ffffffffffffffffffffffffffffffffffffffff161480610ab65750600d5f8373ffffffffffffffffffffffffffffffffffffffff1673ffffffffffffffffffffffffffffffffffffffff1681526020019081526020015f205f9054906101000a900460ff165b9050919050565b60055481565b5f610acd82611f41565b15610ae257610add84848461191a565b610af4565b610aed8484846116ee565b9050610af9565b600190505b9392505050565b7f000000000000000000000000000000000000000000000000000000000000000081565b5f7f00000000000000000000000000000000000000000000000000000000000000004614610b5957610b54611ff2565b610b7b565b7f00000000000000000000000000000000000000000000000000000000000000005b905090565b610b9a83838360405180602001604052805f8152506111ac565b505050565b5f8073ffffffffffffffffffffffffffffffffffffffff168373ffffffffffffffffffffffffffffffffffffffff1603610c05576040517f5461585f00000000000000000000000000000000000000000000000000000000815260040160405180910390fd5b8160085f3373ffffffffffffffffffffffffffffffffffffffff1673ffffffffffffffffffffffffffffffffffffffff1681526020019081526020015f205f8573ffffffffffffffffffffffffffffffffffffffff1673ffffffffffffffffffffffffffffffffffffffff1681526020019081526020015f20819055508273ffffffffffffffffffffffffffffffffffffffff163373ffffffffffffffffffffffffffffffffffffffff167f8c5be1e5ebec7d5bd14f71427d1e84f3dd0314c0f7b2291e5b200ac8c7c3b92584604051610cdf9190613749565b60405180910390a36001905092915050565b60065481565b5f610d018261207d565b9050610d0c82611f41565b610d42576040517f3f6cc76800000000000000000000000000000000000000000000000000000000815260040160405180910390fd5b5f73ffffffffffffffffffffffffffffffffffffffff168173ffffffffffffffffffffffffffffffffffffffff1603610da7576040517fc5723b5100000000000000000000000000000000000000000000000000000000815260040160405180910390fd5b919050565b7f800000000000000000000000000000000000000000000000000000000000000081565b6007602052805f5260405f205f915090505481565b610ded6120b2565b610df65f612139565b565b600e602052805f5260405f205f915090505481565b5f600554905090565b610e2033826121fa565b50565b5f805f9054906101000a900473ffffffffffffffffffffffffffffffffffffffff16905090565b60048054610e5790613e2c565b80601f0160208091040260200160405190810160405280929190818152602001828054610e8390613e2c565b8015610ece5780601f10610ea557610100808354040283529160200191610ece565b820191905f5260205f20905b815481529060010190602001808311610eb157829003601f168201915b505050505081565b7f000000000000000000000000000000000000000000000000000000000000000081565b5f73ffffffffffffffffffffffffffffffffffffffff168273ffffffffffffffffffffffffffffffffffffffff1603610f5f576040517fccea9e6f00000000000000000000000000000000000000000000000000000000815260040160405180910390fd5b80600a5f3373ffffffffffffffffffffffffffffffffffffffff1673ffffffffffffffffffffffffffffffffffffffff1681526020019081526020015f205f8473ffffffffffffffffffffffffffffffffffffffff1673ffffffffffffffffffffffffffffffffffffffff1681526020019081526020015f205f6101000a81548160ff0219169083151502179055508173ffffffffffffffffffffffffffffffffffffffff163373ffffffffffffffffffffffffffffffffffffffff167f17307eab39ab6107e8899845ad3d59bd9653f200f220920489ca2b5937696c318360405161104b9190613693565b60405180910390a35050565b5f8073ffffffffffffffffffffffffffffffffffffffff168373ffffffffffffffffffffffffffffffffffffffff16036110bd576040517f9c8d2cd200000000000000000000000000000000000000000000000000000000815260040160405180910390fd5b6110c83384846122d5565b905092915050565b6060600c5f8373ffffffffffffffffffffffffffffffffffffffff1673ffffffffffffffffffffffffffffffffffffffff1681526020019081526020015f2080548060200260200160405190810160405280929190818152602001828054801561115757602002820191905f5260205f20905b815481526020019060010190808311611143575b50505050509050919050565b5f600c5f8373ffffffffffffffffffffffffffffffffffffffff1673ffffffffffffffffffffffffffffffffffffffff1681526020019081526020015f20805490509050919050565b6111b582611f41565b6111eb576040517f3f6cc76800000000000000000000000000000000000000000000000000000000815260040160405180910390fd5b6111f6848484610ac3565b505f8373ffffffffffffffffffffffffffffffffffffffff163b141580156112e1575063150b7a0260e01b7bffffffffffffffffffffffffffffffffffffffffffffffffffffffff19168373ffffffffffffffffffffffffffffffffffffffff1663150b7a02338786866040518563ffffffff1660e01b815260040161127f9493929190613eae565b6020604051808303815f875af115801561129b573d5f803e3d5ffd5b505050506040513d601f19601f820116820180604052508101906112bf9190613f0c565b7bffffffffffffffffffffffffffffffffffffffffffffffffffffffff191614155b15611318576040517f3da6393100000000000000000000000000000000000000000000000000000000815260040160405180910390fd5b50505050565b5f600654905090565b61132f6120b2565b61133982826121fa565b5050565b6060611348826126bf565b6040516020016113589190614007565b6040516020818303038152906040529050919050565b428410156113a8576040517f05787bdf00000000000000000000000000000000000000000000000000000000815260040160405180910390fd5b6113b185611f41565b156113e8576040517f1f3e0de800000000000000000000000000000000000000000000000000000000815260040160405180910390fd5b5f73ffffffffffffffffffffffffffffffffffffffff168673ffffffffffffffffffffffffffffffffffffffff160361144d576040517f5461585f00000000000000000000000000000000000000000000000000000000815260040160405180910390fd5b5f6001611458610b24565b7f6e71edae12b1b97f4d1f60370fef10105fa2faae0126114a169c64845d6126c98a8a8a600e5f8f73ffffffffffffffffffffffffffffffffffffffff1673ffffffffffffffffffffffffffffffffffffffff1681526020019081526020015f205f815480929190600101919050558b6040516020016114dd96959493929190614028565b604051602081830303815290604052805190602001206040516020016115049291906140f1565b604051602081830303815290604052805190602001208585856040515f81526020016040526040516115399493929190614127565b6020604051602081039080840390855afa158015611559573d5f803e3d5ffd5b5050506020604051035190505f73ffffffffffffffffffffffffffffffffffffffff168173ffffffffffffffffffffffffffffffffffffffff1614806115cb57508773ffffffffffffffffffffffffffffffffffffffff168173ffffffffffffffffffffffffffffffffffffffff1614155b15611602576040517f815e1d6400000000000000000000000000000000000000000000000000000000815260040160405180910390fd5b8560085f8373ffffffffffffffffffffffffffffffffffffffff1673ffffffffffffffffffffffffffffffffffffffff1681526020019081526020015f205f8973ffffffffffffffffffffffffffffffffffffffff1673ffffffffffffffffffffffffffffffffffffffff1681526020019081526020015f2081905550508573ffffffffffffffffffffffffffffffffffffffff168773ffffffffffffffffffffffffffffffffffffffff167f8c5be1e5ebec7d5bd14f71427d1e84f3dd0314c0f7b2291e5b200ac8c7c3b925876040516116dd9190613749565b60405180910390a350505050505050565b5f8073ffffffffffffffffffffffffffffffffffffffff168473ffffffffffffffffffffffffffffffffffffffff1603611754576040517fddb5de5e00000000000000000000000000000000000000000000000000000000815260040160405180910390fd5b5f73ffffffffffffffffffffffffffffffffffffffff168373ffffffffffffffffffffffffffffffffffffffff16036117b9576040517f9c8d2cd200000000000000000000000000000000000000000000000000000000815260040160405180910390fd5b5f60085f8673ffffffffffffffffffffffffffffffffffffffff1673ffffffffffffffffffffffffffffffffffffffff1681526020019081526020015f205f3373ffffffffffffffffffffffffffffffffffffffff1673ffffffffffffffffffffffffffffffffffffffff1681526020019081526020015f205490507fffffffffffffffffffffffffffffffffffffffffffffffffffffffffffffffff81146118e55782816118689190614197565b60085f8773ffffffffffffffffffffffffffffffffffffffff1673ffffffffffffffffffffffffffffffffffffffff1681526020019081526020015f205f3373ffffffffffffffffffffffffffffffffffffffff1673ffffffffffffffffffffffffffffffffffffffff1681526020019081526020015f20819055505b6118f08585856122d5565b9150509392505050565b6008602052815f5260405f20602052805f5260405f205f91509150505481565b5f73ffffffffffffffffffffffffffffffffffffffff168373ffffffffffffffffffffffffffffffffffffffff160361197f576040517fddb5de5e00000000000000000000000000000000000000000000000000000000815260040160405180910390fd5b5f73ffffffffffffffffffffffffffffffffffffffff168273ffffffffffffffffffffffffffffffffffffffff16036119e4576040517f9c8d2cd200000000000000000000000000000000000000000000000000000000815260040160405180910390fd5b6119ed8161207d565b73ffffffffffffffffffffffffffffffffffffffff168373ffffffffffffffffffffffffffffffffffffffff1614611a51576040517f82b4290000000000000000000000000000000000000000000000000000000000815260040160405180910390fd5b8273ffffffffffffffffffffffffffffffffffffffff163373ffffffffffffffffffffffffffffffffffffffff1614158015611b0f5750600a5f8473ffffffffffffffffffffffffffffffffffffffff1673ffffffffffffffffffffffffffffffffffffffff1681526020019081526020015f205f3373ffffffffffffffffffffffffffffffffffffffff1673ffffffffffffffffffffffffffffffffffffffff1681526020019081526020015f205f9054906101000a900460ff16155b8015611b77575060095f8281526020019081526020015f205f9054906101000a900473ffffffffffffffffffffffffffffffffffffffff1673ffffffffffffffffffffffffffffffffffffffff163373ffffffffffffffffffffffffffffffffffffffff1614155b15611bae576040517f82b4290000000000000000000000000000000000000000000000000000000000815260040160405180910390fd5b611bb782610a35565b15611bee576040517f5ce7539700000000000000000000000000000000000000000000000000000000815260040160405180910390fd5b611c1983837f0000000000000000000000000000000000000000000000000000000000000000612789565b611c248383836128e1565b505050565b5f611c338261207d565b90508073ffffffffffffffffffffffffffffffffffffffff163373ffffffffffffffffffffffffffffffffffffffff1614158015611cf35750600a5f8273ffffffffffffffffffffffffffffffffffffffff1673ffffffffffffffffffffffffffffffffffffffff1681526020019081526020015f205f3373ffffffffffffffffffffffffffffffffffffffff1673ffffffffffffffffffffffffffffffffffffffff1681526020019081526020015f205f9054906101000a900460ff16155b15611d2a576040517f82b4290000000000000000000000000000000000000000000000000000000000815260040160405180910390fd5b8260095f8481526020019081526020015f205f6101000a81548173ffffffffffffffffffffffffffffffffffffffff021916908373ffffffffffffffffffffffffffffffffffffffff160217905550818373ffffffffffffffffffffffffffffffffffffffff168273ffffffffffffffffffffffffffffffffffffffff167f8c5be1e5ebec7d5bd14f71427d1e84f3dd0314c0f7b2291e5b200ac8c7c3b92560405160405180910390a4505050565b600a602052815f5260405f20602052805f5260405f205f915091509054906101000a900460ff1681565b611e0b6120b2565b5f73ffffffffffffffffffffffffffffffffffffffff168173ffffffffffffffffffffffffffffffffffffffff1603611e7b575f6040517f1e4fbdf7000000000000000000000000000000000000000000000000000000008152600401611e729190613870565b60405180910390fd5b611e8481612139565b50565b60605f8267ffffffffffffffff811115611ea457611ea3613aee565b5b604051908082528060200260200182016040528015611ed25781602001602082028036833780820191505090505b5090505f8490505b8385611ee691906141ca565b811015611f3657611f01816001612c3990919063ffffffff16565b828683611f0e9190614197565b81518110611f1f57611f1e6141fd565b5b602002602001018181525050806001019050611eda565b508091505092915050565b5f7f800000000000000000000000000000000000000000000000000000000000000082118015611f9157507fffffffffffffffffffffffffffffffffffffffffffffffffffffffffffffffff8214155b9050919050565b5f815f015f9054906101000a90046fffffffffffffffffffffffffffffffff16825f0160109054906101000a90046fffffffffffffffffffffffffffffffff16036fffffffffffffffffffffffffffffffff169050919050565b5f7f8b73c3c69bb8fe3d512ecc4cf759cc79239f7b179b0ffacaa9a75d522b39400f600360405161202391906142c6565b60405180910390207fc89efdaa54c0f20c7adf612882df0950f5a951637e0307cdcb4c672f298b8bc646306040516020016120629594939291906142dc565b60405160208183030381529060405280519060200120905090565b5f80600b5f8481526020019081526020015f2054905073ffffffffffffffffffffffffffffffffffffffff8116915050919050565b6120ba612cdb565b73ffffffffffffffffffffffffffffffffffffffff166120d8610e23565b73ffffffffffffffffffffffffffffffffffffffff1614612137576120fb612cdb565b6040517f118cdaa700000000000000000000000000000000000000000000000000000000815260040161212e9190613870565b60405180910390fd5b565b5f805f9054906101000a900473ffffffffffffffffffffffffffffffffffffffff169050815f806101000a81548173ffffffffffffffffffffffffffffffffffffffff021916908373ffffffffffffffffffffffffffffffffffffffff1602179055508173ffffffffffffffffffffffffffffffffffffffff168173ffffffffffffffffffffffffffffffffffffffff167f8be0079c531659141344cd1fd0a4f28419497f9722a3daafe3b4186f6b6457e060405160405180910390a35050565b5f73ffffffffffffffffffffffffffffffffffffffff168273ffffffffffffffffffffffffffffffffffffffff160361225f576040517fa41e3d3f00000000000000000000000000000000000000000000000000000000815260040160405180910390fd5b80156122735761226e82612ce2565b61227d565b61227c82612d11565b5b80600d5f8473ffffffffffffffffffffffffffffffffffffffff1673ffffffffffffffffffffffffffffffffffffffff1681526020019081526020015f205f6101000a81548160ff0219169083151502179055505050565b5f806122e0856108e9565b90505f6122ec856108e9565b90506122f9868686612789565b5f61230387610a35565b90505f61230f87610a35565b905081801561231b5750805b6126b05781156123ec575f7f000000000000000000000000000000000000000000000000000000000000000084612352919061435a565b7f000000000000000000000000000000000000000000000000000000000000000060075f8b73ffffffffffffffffffffffffffffffffffffffff1673ffffffffffffffffffffffffffffffffffffffff1681526020019081526020015f20546123bb919061435a565b6123c59190614197565b90505f5b818110156123e5576123da89612d83565b8060010190506123c9565b50506126af565b80156124b9575f7f000000000000000000000000000000000000000000000000000000000000000060075f8b73ffffffffffffffffffffffffffffffffffffffff1673ffffffffffffffffffffffffffffffffffffffff1681526020019081526020015f205461245c919061435a565b7f000000000000000000000000000000000000000000000000000000000000000086612488919061435a565b6124929190614197565b90505f5b818110156124b2576124a78a612f2a565b806001019050612496565b50506126ae565b5f7f0000000000000000000000000000000000000000000000000000000000000000876124e6919061435a565b90505f5b818110156125b5575f6001600c5f8d73ffffffffffffffffffffffffffffffffffffffff1673ffffffffffffffffffffffffffffffffffffffff1681526020019081526020015f20805490506125409190614197565b90505f600c5f8d73ffffffffffffffffffffffffffffffffffffffff1673ffffffffffffffffffffffffffffffffffffffff1681526020019081526020015f208281548110612592576125916141fd565b5b905f5260205f20015490506125a88c8c836128e1565b82600101925050506124ea565b50807f00000000000000000000000000000000000000000000000000000000000000006125e18b6108e9565b6125eb919061435a565b7f000000000000000000000000000000000000000000000000000000000000000087612617919061435a565b6126219190614197565b11156126315761263089612f2a565b5b807f00000000000000000000000000000000000000000000000000000000000000008561265e919061435a565b7f00000000000000000000000000000000000000000000000000000000000000006126888b6108e9565b612692919061435a565b61269c9190614197565b11156126ac576126ab88612d83565b5b505b5b5b60019450505050509392505050565b60605f60016126cd84613059565b0190505f8167ffffffffffffffff8111156126eb576126ea613aee565b5b6040519080825280601f01601f19166020018201604052801561271d5781602001600182028036833780820191505090505b5090505f82602001820190505b60011561277e578080600190039150507f3031323334353637383961626364656600000000000000000000000000000000600a86061a8153600a85816127735761277261432d565b5b0494505f850361272a575b819350505050919050565b5f73ffffffffffffffffffffffffffffffffffffffff168373ffffffffffffffffffffffffffffffffffffffff16036127d9578060055f8282546127cd91906141ca565b9250508190555061282d565b8060075f8573ffffffffffffffffffffffffffffffffffffffff1673ffffffffffffffffffffffffffffffffffffffff1681526020019081526020015f205f8282546128259190614197565b925050819055505b8060075f8473ffffffffffffffffffffffffffffffffffffffff1673ffffffffffffffffffffffffffffffffffffffff1681526020019081526020015f205f82825401925050819055508173ffffffffffffffffffffffffffffffffffffffff168373ffffffffffffffffffffffffffffffffffffffff167fddf252ad1be2c89b69c2b068fc378daa952ba7f163c4a11628f55a4df523b3ef836040516128d49190613749565b60405180910390a3505050565b5f73ffffffffffffffffffffffffffffffffffffffff168373ffffffffffffffffffffffffffffffffffffffff1614612acb5760095f8281526020019081526020015f205f6101000a81549073ffffffffffffffffffffffffffffffffffffffff02191690555f600c5f8573ffffffffffffffffffffffffffffffffffffffff1673ffffffffffffffffffffffffffffffffffffffff1681526020019081526020015f206001600c5f8773ffffffffffffffffffffffffffffffffffffffff1673ffffffffffffffffffffffffffffffffffffffff1681526020019081526020015f20805490506129d29190614197565b815481106129e3576129e26141fd565b5b905f5260205f2001549050818114612a69575f6129ff836131aa565b905081600c5f8773ffffffffffffffffffffffffffffffffffffffff1673ffffffffffffffffffffffffffffffffffffffff1681526020019081526020015f208281548110612a5157612a506141fd565b5b905f5260205f200181905550612a6782826131cc565b505b600c5f8573ffffffffffffffffffffffffffffffffffffffff1673ffffffffffffffffffffffffffffffffffffffff1681526020019081526020015f20805480612ab657612ab561438a565b5b600190038181905f5260205f20015f90559055505b5f73ffffffffffffffffffffffffffffffffffffffff168273ffffffffffffffffffffffffffffffffffffffff1614612bc457612b08818361329a565b600c5f8373ffffffffffffffffffffffffffffffffffffffff1673ffffffffffffffffffffffffffffffffffffffff1681526020019081526020015f2081908060018154018082558091505060019003905f5260205f20015f9091909190915055612bbf816001600c5f8673ffffffffffffffffffffffffffffffffffffffff1673ffffffffffffffffffffffffffffffffffffffff1681526020019081526020015f2080549050612bba9190614197565b6131cc565b612bd9565b600b5f8281526020019081526020015f205f90555b808273ffffffffffffffffffffffffffffffffffffffff168473ffffffffffffffffffffffffffffffffffffffff167fddf252ad1be2c89b69c2b068fc378daa952ba7f163c4a11628f55a4df523b3ef60405160405180910390a4505050565b5f612c4383611f98565b8210612c7b576040517f580821e700000000000000000000000000000000000000000000000000000000815260040160405180910390fd5b826001015f83855f015f9054906101000a90046fffffffffffffffffffffffffffffffff16016fffffffffffffffffffffffffffffffff166fffffffffffffffffffffffffffffffff1681526020019081526020015f2054905092915050565b5f33905090565b5f612cec82611163565b90505f5b81811015612d0c57612d0183612f2a565b806001019050612cf0565b505050565b5f7f0000000000000000000000000000000000000000000000000000000000000000612d3c836108e9565b612d46919061435a565b90505f612d5283611163565b90505f5b8183612d629190614197565b811015612d7d57612d7284612d83565b806001019050612d56565b50505050565b5f73ffffffffffffffffffffffffffffffffffffffff168173ffffffffffffffffffffffffffffffffffffffff1603612de8576040517f9c8d2cd200000000000000000000000000000000000000000000000000000000815260040160405180910390fd5b5f612df36001613307565b612e0857612e016001613373565b9050612ea9565b60065f8154612e16906143b7565b919050819055507fffffffffffffffffffffffffffffffffffffffffffffffffffffffffffffffff60065403612e78576040517f303b682f00000000000000000000000000000000000000000000000000000000815260040160405180910390fd5b6006547f8000000000000000000000000000000000000000000000000000000000000000612ea691906141ca565b90505b5f612eb38261207d565b90505f73ffffffffffffffffffffffffffffffffffffffff168173ffffffffffffffffffffffffffffffffffffffff1614612f1a576040517f23369fa600000000000000000000000000000000000000000000000000000000815260040160405180910390fd5b612f258184846128e1565b505050565b5f73ffffffffffffffffffffffffffffffffffffffff168173ffffffffffffffffffffffffffffffffffffffff1603612f8f576040517fddb5de5e00000000000000000000000000000000000000000000000000000000815260040160405180910390fd5b5f600c5f8373ffffffffffffffffffffffffffffffffffffffff1673ffffffffffffffffffffffffffffffffffffffff1681526020019081526020015f206001600c5f8573ffffffffffffffffffffffffffffffffffffffff1673ffffffffffffffffffffffffffffffffffffffff1681526020019081526020015f208054905061301a9190614197565b8154811061302b5761302a6141fd565b5b905f5260205f2001549050613041825f836128e1565b6130558160016134cd90919063ffffffff16565b5050565b5f805f90507a184f03e93ff9f4daa797ed6e38ed64bf6a1f01000000000000000083106130b5577a184f03e93ff9f4daa797ed6e38ed64bf6a1f01000000000000000083816130ab576130aa61432d565b5b0492506040810190505b6d04ee2d6d415b85acef810000000083106130f2576d04ee2d6d415b85acef810000000083816130e8576130e761432d565b5b0492506020810190505b662386f26fc10000831061312157662386f26fc1000083816131175761311661432d565b5b0492506010810190505b6305f5e100831061314a576305f5e10083816131405761313f61432d565b5b0492506008810190505b612710831061316f5761271083816131655761316461432d565b5b0492506004810190505b6064831061319257606483816131885761318761432d565b5b0492506002810190505b600a83106131a1576001810190505b80915050919050565b5f80600b5f8481526020019081526020015f205490508060a01c915050919050565b5f600b5f8481526020019081526020015f2054905060a07fffffffffffffffffffffffff0000000000000000000000000000000000000000901c82111561323f576040517ffcb3438c00000000000000000000000000000000000000000000000000000000815260040160405180910390fd5b7fffffffffffffffffffffffff00000000000000000000000000000000000000008260a01b1673ffffffffffffffffffffffffffffffffffffffff821601905080600b5f8581526020019081526020015f2081905550505050565b5f600b5f8481526020019081526020015f2054905073ffffffffffffffffffffffffffffffffffffffff82167fffffffffffffffffffffffff0000000000000000000000000000000000000000821601905080600b5f8581526020019081526020015f2081905550505050565b5f815f015f9054906101000a90046fffffffffffffffffffffffffffffffff166fffffffffffffffffffffffffffffffff16825f0160109054906101000a90046fffffffffffffffffffffffffffffffff166fffffffffffffffffffffffffffffffff16149050919050565b5f80825f0160109054906101000a90046fffffffffffffffffffffffffffffffff169050825f015f9054906101000a90046fffffffffffffffffffffffffffffffff166fffffffffffffffffffffffffffffffff16816fffffffffffffffffffffffffffffffff1603613412576040517f75e52f4f00000000000000000000000000000000000000000000000000000000815260040160405180910390fd5b80600190039050826001015f826fffffffffffffffffffffffffffffffff166fffffffffffffffffffffffffffffffff1681526020019081526020015f20549150826001015f826fffffffffffffffffffffffffffffffff166fffffffffffffffffffffffffffffffff1681526020019081526020015f205f905580835f0160106101000a8154816fffffffffffffffffffffffffffffffff02191690836fffffffffffffffffffffffffffffffff16021790555050919050565b5f6001835f015f9054906101000a90046fffffffffffffffffffffffffffffffff16039050825f0160109054906101000a90046fffffffffffffffffffffffffffffffff166fffffffffffffffffffffffffffffffff16816fffffffffffffffffffffffffffffffff160361356e576040517f8acb5f2700000000000000000000000000000000000000000000000000000000815260040160405180910390fd5b81836001015f836fffffffffffffffffffffffffffffffff166fffffffffffffffffffffffffffffffff1681526020019081526020015f208190555080835f015f6101000a8154816fffffffffffffffffffffffffffffffff02191690836fffffffffffffffffffffffffffffffff160217905550505050565b5f604051905090565b5f80fd5b5f80fd5b5f7fffffffff0000000000000000000000000000000000000000000000000000000082169050919050565b61362d816135f9565b8114613637575f80fd5b50565b5f8135905061364881613624565b92915050565b5f60208284031215613663576136626135f1565b5b5f6136708482850161363a565b91505092915050565b5f8115159050919050565b61368d81613679565b82525050565b5f6020820190506136a65f830184613684565b92915050565b5f73ffffffffffffffffffffffffffffffffffffffff82169050919050565b5f6136d5826136ac565b9050919050565b6136e5816136cb565b81146136ef575f80fd5b50565b5f81359050613700816136dc565b92915050565b5f6020828403121561371b5761371a6135f1565b5b5f613728848285016136f2565b91505092915050565b5f819050919050565b61374381613731565b82525050565b5f60208201905061375c5f83018461373a565b92915050565b5f81519050919050565b5f82825260208201905092915050565b5f5b8381101561379957808201518184015260208101905061377e565b5f8484015250505050565b5f601f19601f8301169050919050565b5f6137be82613762565b6137c8818561376c565b93506137d881856020860161377c565b6137e1816137a4565b840191505092915050565b5f6020820190508181035f83015261380481846137b4565b905092915050565b61381581613731565b811461381f575f80fd5b50565b5f813590506138308161380c565b92915050565b5f6020828403121561384b5761384a6135f1565b5b5f61385884828501613822565b91505092915050565b61386a816136cb565b82525050565b5f6020820190506138835f830184613861565b92915050565b5f806040838503121561389f5761389e6135f1565b5b5f6138ac858286016136f2565b92505060206138bd85828601613822565b9150509250929050565b5f805f606084860312156138de576138dd6135f1565b5b5f6138eb868287016136f2565b93505060206138fc868287016136f2565b925050604061390d86828701613822565b9150509250925092565b5f60ff82169050919050565b61392c81613917565b82525050565b5f6020820190506139455f830184613923565b92915050565b5f819050919050565b61395d8161394b565b82525050565b5f6020820190506139765f830184613954565b92915050565b61398581613679565b811461398f575f80fd5b50565b5f813590506139a08161397c565b92915050565b5f602082840312156139bb576139ba6135f1565b5b5f6139c884828501613992565b91505092915050565b5f80604083850312156139e7576139e66135f1565b5b5f6139f4858286016136f2565b9250506020613a0585828601613992565b9150509250929050565b5f81519050919050565b5f82825260208201905092915050565b5f819050602082019050919050565b613a4181613731565b82525050565b5f613a528383613a38565b60208301905092915050565b5f602082019050919050565b5f613a7482613a0f565b613a7e8185613a19565b9350613a8983613a29565b805f5b83811015613ab9578151613aa08882613a47565b9750613aab83613a5e565b925050600181019050613a8c565b5085935050505092915050565b5f6020820190508181035f830152613ade8184613a6a565b905092915050565b5f80fd5b5f80fd5b7f4e487b71000000000000000000000000000000000000000000000000000000005f52604160045260245ffd5b613b24826137a4565b810181811067ffffffffffffffff82111715613b4357613b42613aee565b5b80604052505050565b5f613b556135e8565b9050613b618282613b1b565b919050565b5f67ffffffffffffffff821115613b8057613b7f613aee565b5b613b89826137a4565b9050602081019050919050565b828183375f83830152505050565b5f613bb6613bb184613b66565b613b4c565b905082815260208101848484011115613bd257613bd1613aea565b5b613bdd848285613b96565b509392505050565b5f82601f830112613bf957613bf8613ae6565b5b8135613c09848260208601613ba4565b91505092915050565b5f805f8060808587031215613c2a57613c296135f1565b5b5f613c37878288016136f2565b9450506020613c48878288016136f2565b9350506040613c5987828801613822565b925050606085013567ffffffffffffffff811115613c7a57613c796135f5565b5b613c8687828801613be5565b91505092959194509250565b613c9b81613917565b8114613ca5575f80fd5b50565b5f81359050613cb681613c92565b92915050565b613cc58161394b565b8114613ccf575f80fd5b50565b5f81359050613ce081613cbc565b92915050565b5f805f805f805f60e0888a031215613d0157613d006135f1565b5b5f613d0e8a828b016136f2565b9750506020613d1f8a828b016136f2565b9650506040613d308a828b01613822565b9550506060613d418a828b01613822565b9450506080613d528a828b01613ca8565b93505060a0613d638a828b01613cd2565b92505060c0613d748a828b01613cd2565b91505092959891949750929550565b5f8060408385031215613d9957613d986135f1565b5b5f613da6858286016136f2565b9250506020613db7858286016136f2565b9150509250929050565b5f8060408385031215613dd757613dd66135f1565b5b5f613de485828601613822565b9250506020613df585828601613822565b9150509250929050565b7f4e487b71000000000000000000000000000000000000000000000000000000005f52602260045260245ffd5b5f6002820490506001821680613e4357607f821691505b602082108103613e5657613e55613dff565b5b50919050565b5f81519050919050565b5f82825260208201905092915050565b5f613e8082613e5c565b613e8a8185613e66565b9350613e9a81856020860161377c565b613ea3816137a4565b840191505092915050565b5f608082019050613ec15f830187613861565b613ece6020830186613861565b613edb604083018561373a565b8181036060830152613eed8184613e76565b905095945050505050565b5f81519050613f0681613624565b92915050565b5f60208284031215613f2157613f206135f1565b5b5f613f2e84828501613ef8565b91505092915050565b5f81905092915050565b7f68747470733a2f2f62616679626569676a78726b7663777578707773713432685f8201527f66736a7535777570626e6b3475616b63636f726b62376f6f7272373362786b3560208201527f7170752e697066732e6e667473746f726167652e6c696e6b2f00000000000000604082015250565b5f613fc1605983613f37565b9150613fcc82613f41565b605982019050919050565b5f613fe182613762565b613feb8185613f37565b9350613ffb81856020860161377c565b80840191505092915050565b5f61401182613fb5565b915061401d8284613fd7565b915081905092915050565b5f60c08201905061403b5f830189613954565b6140486020830188613861565b6140556040830187613861565b614062606083018661373a565b61406f608083018561373a565b61407c60a083018461373a565b979650505050505050565b7f19010000000000000000000000000000000000000000000000000000000000005f82015250565b5f6140bb600283613f37565b91506140c682614087565b600282019050919050565b5f819050919050565b6140eb6140e68261394b565b6140d1565b82525050565b5f6140fb826140af565b915061410782856140da565b60208201915061411782846140da565b6020820191508190509392505050565b5f60808201905061413a5f830187613954565b6141476020830186613923565b6141546040830185613954565b6141616060830184613954565b95945050505050565b7f4e487b71000000000000000000000000000000000000000000000000000000005f52601160045260245ffd5b5f6141a182613731565b91506141ac83613731565b92508282039050818111156141c4576141c361416a565b5b92915050565b5f6141d482613731565b91506141df83613731565b92508282019050808211156141f7576141f661416a565b5b92915050565b7f4e487b71000000000000000000000000000000000000000000000000000000005f52603260045260245ffd5b5f81905092915050565b5f819050815f5260205f209050919050565b5f815461425281613e2c565b61425c818661422a565b9450600182165f8114614276576001811461428b576142bd565b60ff19831686528115158202860193506142bd565b61429485614234565b5f5b838110156142b557815481890152600182019150602081019050614296565b838801955050505b50505092915050565b5f6142d18284614246565b915081905092915050565b5f60a0820190506142ef5f830188613954565b6142fc6020830187613954565b6143096040830186613954565b614316606083018561373a565b6143236080830184613861565b9695505050505050565b7f4e487b71000000000000000000000000000000000000000000000000000000005f52601260045260245ffd5b5f61436482613731565b915061436f83613731565b92508261437f5761437e61432d565b5b828204905092915050565b7f4e487b71000000000000000000000000000000000000000000000000000000005f52603160045260245ffd5b5f6143c182613731565b91507fffffffffffffffffffffffffffffffffffffffffffffffffffffffffffffffff82036143f3576143f261416a565b5b60018201905091905056fea26469706673582212205294fd16a253e0ad3c691d19b19128a8e6a9976879624adcf843680c73c8afd464736f6c63430008150033",
  "immutableReferences": {
    "248": [
      {
        "length": 32,
        "start": 2818
      }
    ],
    "251": [
      {
        "length": 32,
        "start": 3800
      },
      {
        "length": 32,
        "start": 7157
      },
      {
        "length": 32,
        "start": 9000
      },
      {
        "length": 32,
        "start": 9044
      },
      {
        "length": 32,
        "start": 9205
      },
      {
        "length": 32,
        "start": 9310
      },
      {
        "length": 32,
        "start": 9404
      },
      {
        "length": 32,
        "start": 9657
      },
      {
        "length": 32,
        "start": 9709
      },
      {
        "length": 32,
        "start": 9780
      },
      {
        "length": 32,
        "start": 9824
      },
      {
        "length": 32,
        "start": 11540
      }
    ],
    "260": [
      {
        "length": 32,
        "start": 2855
      }
    ],
    "263": [
      {
        "length": 32,
        "start": 2907
      }
    ]
  },
  "source": "//SPDX-License-Identifier: MIT\r\npragma solidity ^0.8.0;\r\n\r\nimport \"../node_modules/@openzeppelin/contracts/access/Ownable.sol\";\r\nimport \"../node_modules/@openzeppelin/contracts/utils/Strings.sol\";\r\nimport \"../erc404/contracts/ERC404.sol\";\r\n\r\ncontract ERC404Example is Ownable, ERC404 {\r\n    constructor(\r\n        string memory name_,\r\n        string memory symbol_,\r\n        uint8 decimals_,\r\n        address initialOwner_\r\n    ) ERC404(name_, symbol_, decimals_) Ownable(initialOwner_) {\r\n        // Default values for initialMintRecipent_ and maxTotalSupplyERC721_\r\n        address initialMintRecipent_ = msg.sender;\r\n        uint256 maxTotalSupplyERC721_ = 1000; // Or any other suitable default value\r\n        \r\n        _setERC721TransferExempt(initialMintRecipent_, true);\r\n        _mintERC20(initialMintRecipent_, maxTotalSupplyERC721_ * units);\r\n    }\r\n\r\n    function tokenURI(uint256 id_) public pure override returns (string memory) {\r\n        return string.concat(\"https://bafybeigjxrkvcwuxpwsq42hfsju5wupbnk4uakccorkb7oorr73bxk5qpu.ipfs.nftstorage.link/\", Strings.toString(id_));\r\n    }\r\n\r\n    function setERC721TransferExempt(address account_, bool value_) external onlyOwner {\r\n        _setERC721TransferExempt(account_, value_);\r\n    }\r\n}",
  "sourcePath": "C:\\Users\\kaana\\OneDrive\\Documents\\deneme\\NFT-project\\truffle\\contracts\\erc404.sol",
  "compiler": {
    "name": "solc",
    "version": "0.8.21+commit.d9974bed.Emscripten.clang"
  },
  "schemaVersion": "3.4.16",
  "updatedAt": "2024-03-08T13:04:36.340Z",
  "devdoc": {
    "errors": {
      "OwnableInvalidOwner(address)": [
        {
          "details": "The owner is not a valid owner account. (eg. `address(0)`)"
        }
      ],
      "OwnableUnauthorizedAccount(address)": [
        {
          "details": "The caller account is not authorized to perform an operation."
        }
      ],
      "QueueEmpty()": [
        {
          "details": "An operation (e.g. {front}) couldn't be completed due to the queue being empty."
        }
      ],
      "QueueFull()": [
        {
          "details": "A push operation couldn't be completed due to the queue being full."
        }
      ],
      "QueueOutOfBounds()": [
        {
          "details": "An operation (e.g. {at}) couldn't be completed due to an index being out of bounds."
        }
      ]
    },
    "kind": "dev",
    "methods": {
      "approve(address,uint256)": {
        "details": "This function assumes the operator is attempting to approve      an ERC-721 if valueOrId_ is a possibly valid ERC-721 token id.      Unlike setApprovalForAll, spender_ must be allowed to be 0x0 so      that approval can be revoked."
      },
      "erc20Approve(address,uint256)": {
        "details": "Providing type(uint256).max for approval value results in an      unlimited approval that is not deducted from on transfers."
      },
      "erc20TransferFrom(address,address,uint256)": {
        "details": "This function is recommended for ERC20 transfers"
      },
      "erc721TransferFrom(address,address,uint256)": {
        "details": "This function is recommended for ERC721 transfers."
      },
      "owner()": {
        "details": "Returns the address of the current owner."
      },
      "permit(address,address,uint256,uint256,uint8,bytes32,bytes32)": {
        "details": "Providing type(uint256).max for permit value results in an      unlimited approval that is not deducted from on transfers."
      },
      "renounceOwnership()": {
        "details": "Leaves the contract without owner. It will not be possible to call `onlyOwner` functions. Can only be called by the current owner. NOTE: Renouncing ownership will leave the contract without an owner, thereby disabling any functionality that is only available to the owner."
      },
      "supportsInterface(bytes4)": {
        "details": "Returns true if this contract implements the interface defined by `interfaceId`. See the corresponding https://eips.ethereum.org/EIPS/eip-165#how-interfaces-are-identified[EIP section] to learn more about how these ids are created. This function call must use less than 30 000 gas."
      },
      "transfer(address,uint256)": {
        "details": "This function assumes the operator is attempting to transfer as ERC-20      given this function is only supported on the ERC-20 interface.      Treats even large amounts that are valid ERC-721 ids as ERC-20s."
      },
      "transferFrom(address,address,uint256)": {
        "details": "This function assumes the operator is attempting to transfer an ERC-721      if valueOrId is a possible valid token id."
      },
      "transferOwnership(address)": {
        "details": "Transfers ownership of the contract to a new account (`newOwner`). Can only be called by the current owner."
      }
    },
    "version": 1
  },
  "userdoc": {
    "kind": "user",
    "methods": {
      "DOMAIN_SEPARATOR()": {
        "notice": "Returns domain initial domain separator, or recomputes if chain id is not equal to initial chain id"
      },
      "approve(address,uint256)": {
        "notice": "Function for token approvals"
      },
      "erc20TransferFrom(address,address,uint256)": {
        "notice": "Function for ERC-20 transfers from."
      },
      "erc721TransferExempt(address)": {
        "notice": "Function to check if address is transfer exempt"
      },
      "erc721TransferFrom(address,address,uint256)": {
        "notice": "Function for ERC-721 transfers from."
      },
      "ownerOf(uint256)": {
        "notice": "Function to find owner of a given ERC-721 token"
      },
      "permit(address,address,uint256,uint256,uint8,bytes32,bytes32)": {
        "notice": "Function for EIP-2612 permits (ERC-20 only)."
      },
      "safeTransferFrom(address,address,uint256)": {
        "notice": "Function for ERC-721 transfers with contract support. This function only supports moving valid ERC-721 ids, as it does not exist on the ERC-20 spec and will revert otherwise."
      },
      "safeTransferFrom(address,address,uint256,bytes)": {
        "notice": "Function for ERC-721 transfers with contract support and callback data. This function only supports moving valid ERC-721 ids, as it does not exist on the ERC-20 spec and will revert otherwise."
      },
      "setApprovalForAll(address,bool)": {
        "notice": "Function for ERC-721 approvals"
      },
      "setSelfERC721TransferExempt(bool)": {
        "notice": "Function for self-exemption"
      },
      "tokenURI(uint256)": {
        "notice": "tokenURI must be implemented by child contract"
      },
      "transfer(address,uint256)": {
        "notice": "Function for ERC-20 transfers."
      },
      "transferFrom(address,address,uint256)": {
        "notice": "Function for mixed transfers from an operator that may be different than 'from'."
      }
    },
    "version": 1
  }
}